:020000040800F2
:10000000500700209101000853060008D1050008A0
:10001000510600081F0500082D0C00080000000014
:1000200000000000000000000000000019090008A6
:10003000210500080000000031080008ED09000853
:10004000AB010008AB010008AB010008AB010008E0
:10005000AB010008AB010008AB010008AB010008D0
:10006000AB010008AB010008AB010008AB010008C0
:10007000AB010008AB010008AB010008AB010008B0
:10008000AB010008AB010008AB010008AB010008A0
:10009000AB010008AB010008AB010008AB01000890
:1000A000AB010008AB010008AB010008AB01000880
:1000B000AB010008AB010008AB010008AB01000870
:1000C000AB010008AB010008AB010008AB01000860
:1000D000AB010008410A0008AB010008650A0008EE
:1000E000AB010008AB010008AB01000800F002F80A
:1000F00000F03FF80AA090E8000C82448344AAF183
:100100000107DA4501D100F034F8AFF2090EBAE880
:100110000F0013F0010F18BFFB1A43F0010318473B
:10012000A00F0000C00F0000103A24BF78C878C1AB
:10013000FAD8520724BF30C830C144BF04680C60ED
:10014000704700000023002400250026103A28BF35
:1001500078C1FBD8520728BF30C148BF0B60704739
:10016000732900F09E81002070471FB51FBD10B598
:1001700010BD00F09AF91146FFF7F7FF00F0D4FE2A
:1001800000F0B8F903B4FFF7F2FF03BC00F0C0F9C8
:100190000948804709480047FEE7FEE7FEE7FEE71B
:1001A000FEE7FEE7FEE7FEE7FEE7FEE70448054957
:1001B000054A064B70470000F1090008ED000008F1
:1001C0005001002050070020500300205003002061
:1001D0000FB41CB5084B06AA7B44694600900598ED
:1001E00000F035F904460020694600F043F9204646
:1001F0001CBC5DF814FB00009902000070B50C46B1
:100200000546012A05D02878800600D5EA69002332
:1002100002E0012305E05B1C934202D2E05C00286F
:10022000F9D1A869E618C01AA861286A184428629A
:100230002846AFF3008004E0D5E9012114F8010B52
:100240009047B442F8D32846AFF3008070BD000059
:100250002DE9F05F894604464FF0000ADFF874B1DB
:10026000FB44C0F820A02046E1688847002874D0ED
:10027000252806D0D4E901219047206A401C20623D
:10028000F1E700265F462046E168884720280546BA
:1002900007DB312D05D2781910F8200C08B1064380
:1002A000F1E7B00701D526F00406C4F81CA000272A
:1002B000C4F818A02A2D09D0284600F0F5FD38B35F
:1002C00004EB8708303DC8F8185019E059F8041BB2
:1002D000204604EB87029161E1688847012F0546BB
:1002E00018D1E069002820DA26F020061DE0D8F8B1
:1002F000180000EB800005EB40003038C8F818000B
:100300002046E1688847054600F0CEFD0028EED182
:10031000012F0AD02E2D08D12046E16888477F1C86
:100320000546022F46F02006C4DBA069002803DA48
:10033000404246F00106A061F00701D026F0100609
:100340006C2D0BD0682D09D04C2D39D06A2D35D0AD
:10035000742D35D07A2D33D016E038E0E1682F4681
:1003600020468847B842054609D16C2F26D04FF465
:100370008060E168064320468847054604E06C2F0C
:100380001AD04FF4807006430DB3A5F1410019282F
:1003900002D8203546F400664A46294620462660A3
:1003A0004E46FFF7DDFE80B101280BD0F61D26F08A
:1003B000070000F1080956E74020E4E78020D8E76D
:1003C0000020D6E706F104094DE7284652E7206AE7
:1003D000BDE8F09F480E000010B5203AC0F00B8039
:1003E000B1E81850203AA0E81850B1E81850A0E839
:1003F0001850BFF4F5AF5FEA027C24BFB1E8185093
:10040000A0E8185044BF18C918C0BDE810405FEA02
:10041000827C24BF51F8043B40F8043B08BF70477E
:10042000D20728BF31F8023B48BF11F8012B28BF83
:1004300020F8023B48BF00F8012B70477047704717
:100440007047000001694A1C02610878704700B5D6
:100450008FB0CDE901310021059105497944CDE9FD
:10046000031011466846FFF7F3FE0FB000BD000011
:10047000E5FFFFFF0A6802F8010B0A60704710B53C
:10048000436913B1AFF3008001E0FFF7B7FE01202D
:1004900010BD127800F124010A7000224A70012276
:1004A000EDE711684FF0FF32E9E7754600F02CF8F0
:1004B000AE4605006946534620F00700854618B051
:1004C00020B5FFF773FEBDE820404FF000064FF067
:1004D00000074FF000084FF0000B21F00701AC4679
:1004E000ACE8C009ACE8C009ACE8C009ACE8C00998
:1004F0008D46704710B50446AFF300802046BDE836
:100500001040FFF73FBE000000487047F000002099
:1005100001491820ABBEFEE7260002007047FEE747
:1005200070472DE9F0410022CC7804F00F03E40677
:1005300001D58C7823430C784FF00F0714F0FF0F90
:100540004FF0010C1CD005680CFA02F40E8826400E
:10055000A64211D1960007FA06F825EA080503FA23
:1005600006F848EA0505CE78282E02D0482E02D09B
:1005700002E0446100E00461521C082AE4D30560F3
:100580000A88FF2A1ED94568002202F108060CFAE3
:1005900006F40E882640A64210D1960007FA06F807
:1005A00025EA080503FA06F848EA0505CE78282E5C
:1005B00000D14461CE78482E00D10461521C082A33
:1005C000E3D34560BDE8F081416170470161704748
:1005D000FEE7000070B50B4D4FF4807421462846AD
:1005E000FFF7F4FF660031462846FFF7EFFF31467C
:1005F0002846FFF7E9FF21462846BDE87040FFF78F
:10060000E3BF0000000C014070B5084C4FF480714E
:100610002046FFF7DBFF651529462046FFF7D4FF8C
:1006200029462046BDE87040FFF7D0BF000C0140CE
:1006300070B5064D4FF4807421462846FFF7C6FF7B
:1006400021462846BDE87040FFF7BEBF000C0140C0
:10065000FEE7704770B50F23C27801260178002AA3
:100660001ED0144A126802F4E062C2F5E062120A77
:10067000C2F10404D3404578A54082781A402A4349
:10068000120101F1E02181F80024007800F01F013F
:100690008E404009800000F1E020C0F8006170BD8C
:1006A00001F01F0086404809800000F1E020C0F8FA
:1006B000806170BD0CED00E002490843024908600A
:1006C000704700000000FA050CED00E070B5002551
:1006D000002105F1B00000F0A3F80021084600F069
:1006E0009FF80021102000F09BF800240121002039
:1006F00000F096F8641CE4B2802CF7D36D1CEDB2C8
:10070000082DE5D370BD000038B50121082000F0A8
:100710009FF84FF44074ADF8004010208DF80300AE
:1007200003208DF802003D4D69462846FFF7F9FE8B
:1007300021462846FFF74AFF4FF4487000F0DAFBE5
:100740000021AE2000F06CF80021084600F068F8A7
:100750000021102000F064F80021402000F060F833
:100760000021B02000F05CF80021812000F058F852
:100770000021FF2000F054F80021A12000F050F8E3
:100780000021A62000F04CF80021A82000F048F835
:1007900000213F2000F044F80021C82000F040F87C
:1007A0000021D32000F03CF80021084600F038F882
:1007B0000021D52000F034F80021802000F030F82E
:1007C0000021D82000F02CF80021052000F028F8A6
:1007D0000021D92000F024F80021F12000F020F8B9
:1007E0000021DA2000F01CF80021122000F018F897
:1007F0000021DB2000F014F80021302000F010F878
:1008000000218D2000F00CF80021142000F008F8E1
:100810000021AF2000F004F838BD0000000C0140BA
:10082000002902D0C0B200F028BBC0B200F00EBB5D
:1008300070470000054A002903D0D1690143D16106
:100840007047D1698143D1617047000000100240B8
:10085000054A002903D0916901439161704791696C
:1008600081439161704700000010024010B5264A94
:10087000516801F00C01254B002927D0042927D00D
:10088000082927D00360516801F0F0010909204BC5
:100890005C5C0168E1404160546804F4E064240A4F
:1008A0001C5D21FA04F48460546804F46054E40A82
:1008B0001B5DD940C160526802F44042920B144B58
:1008C0001B1F9A5CB1FBF2F1016110BD0360DAE716
:1008D0000360D8E7516801F47011536803F4803362
:1008E000022404EB914133B153689B0307D5094BB4
:1008F00059430160C7E7074B59430160C3E7034B06
:1009000059430160BFE700000010024000127A0066
:100910001800002000093D00704700F001B80000F9
:100920000CB50022019200922748016841F4803101
:1009300001604FF4A063016801F400310091019956
:10094000491C0191009911B901999942F3D10168AB
:10095000890302D50121009100E00092009901294C
:1009600030D11A490A6842F010020A600A6822F07F
:1009700003020A600A6842F002020A6041684160AC
:1009800041684160416841F480614160416821F4FF
:100990007C114160416841F4E8114160016841F017
:1009A0008071016001688901FCD5416821F0030173
:1009B0004160416841F0020141604168C1F3810139
:1009C0000229FAD10CBD00000010024000200240B4
:1009D0004FF0E021042804D0086920F004000861E9
:1009E0007047086940F004000861704770470000D4
:1009F00010B50F48016841F00101016041680D4ADE
:100A00001140416001680C4A11400160016821F405
:100A100080210160416821F4FE0141604FF41F0113
:100A20008160FFF77AFF05494FF00060086010BD54
:100A3000001002400000FFF8FFFFF6FE08ED00E0A6
:100A400010B5074C40F22551204600F04EF8002822
:100A500005D02046BDE81040202100F02FB810BD81
:100A60000038014010B5114C40F22551204600F0ED
:100A70003CF8002819D0204600F0D0F80C4BC1B249
:100A800059700C481A788154521CD2B21A70805C8A
:100A90004B2801D100201870074800F073F9204658
:100AA000BDE81040202100F009B810BD004800400A
:100AB0002C00002030000020003801408A05C94386
:100AC00001807047002904D0818941F4005181815F
:100AD0007047818921F400518181704702460020CE
:100AE00012880A4200D00120704770B5002440F6F9
:100AF0006A12C1F3421301F01F05012606FA05F23E
:100B0000012B0CD0022B0DD0838A1340090A8E4092
:100B1000008830400BB100B10124204670BD8389AC
:100B20001340F3E7038A1340F0E710B540F66A1369
:100B3000C1F3421301F01F040121A140012B07D092
:100B4000022B07D014303AB102680A43026010BD8C
:100B50000C30F8E71030F6E702688A43026010BDF7
:100B600030B585B004460D46208A4CF6FF7108402A
:100B7000E98801432182A0894EF6F3110840A98833
:100B80002A8911436A8902431143A181A08A4FF641
:100B9000FF410840A9890143A1826846FFF766FE2C
:100BA0001D48844201D1039800E00298A1890904FC
:100BB00008D500EBC00101EB001029684900B0FB2B
:100BC000F1F007E000EBC00101EB0010296889009B
:100BD000B0FBF1F06422B0FBF2F109010B096FF0F8
:100BE00018056B4300EB8300A3891D044FF032030B
:100BF00007D503EBC000B0FBF2F000F0070008439C
:100C000006E003EB0010B0FBF2F000F00F00084329
:100C1000208105B030BD0000003801408088C0F35D
:100C200008007047C1F3080181807047FEE70000AB
:100C300070B586B0044601210420FFF709FE0121AA
:100C40008803FFF705FE18218DF817104FF4007187
:100C5000ADF8141003258DF816501E4E05A9304628
:100C6000FFF75FFC04218DF817100902ADF814108E
:100C70008DF8165005A93046FFF753FC0194002467
:100C8000ADF810400C20ADF80E00ADF80C40ADF8FA
:100C90000A40ADF80840104D01A92846FFF760FF53
:100CA00001212846FFF70EFF012240F22551284678
:100CB000FFF73BFF25208DF8000001208DF8030091
:100CC0008DF8014002208DF802006846FFF7C2FC53
:100CD00006B070BD000801400038014030B587B053
:100CE000044601210820FFF7B3FD01218804FFF726
:100CF000A1FD4FF48060ADF8180018208DF81B009E
:100D000003208DF81A001D4D06A92846FFF709FC9F
:100D1000E814ADF8180004208DF81B0006A9284639
:100D2000FFF7FFFB02940024ADF80C40ADF80E4035
:100D3000ADF81040ADF814400C20ADF81200104D85
:100D400002A92846FFF70CFF27218DF804108DF823
:100D5000054002218DF8061001218DF8071001A829
:100D6000FFF778FC012240F225512846FFF7DDFE0F
:100D700001212846FFF7A6FE07B030BD000C014058
:100D80000048004010B504462046FFF74BFF802185
:100D90002046FFF7A3FE0028F9D010BD70B5054628
:100DA000080ACCB201462846FFF73CFF80212846BE
:100DB000FFF794FE0028F9D021462846FFF732FFBE
:100DC00080212846FFF78AFE0028F9D070BD70B553
:100DD00006460D4600243046295DFFF7D3FF641C0C
:100DE000285D0028F7D140213046FFF777FE002824
:100DF000F9D070BD2DE9F0410446134F4FF48076D1
:100E000031463846FFF7E0FB00254FF4007804F048
:100E10008000802813D041463846FFF7D5FB600696
:100E2000040E31463846FFF7D1FB31463846FFF70E
:100E3000CBFB6D1CEDB2082DE9D3BDE8F081414636
:100E40003846FFF7C3FBEAE7000C014010B5044643
:100E5000FFF7C0FB7820FFF7CDFFFFF7E9FB00208D
:100E6000FFF7C8FFFFF7E4FB2046FFF7C3FFFFF7DC
:100E7000DFFBBDE81040FFF7C7BB10B50446FFF726
:100E8000A9FB7820FFF7B6FFFFF7D2FB4020FFF762
:100E9000B1FFFFF7CDFB2046FFF7ACFFFFF7C8FB24
:100EA000BDE81040FFF7B0BB30380A2801D201205E
:100EB000704700207047000010B56FF00400FFF786
:100EC00087FD094809490068B0FBF1F00849C0B244
:100ED000087000EB4002C2EBC0104FF6FF7202EA4E
:100EE000C000488010BD00000000002000127A0001
:100EF000280000200B49498848434FF0E021486111
:100F000000238B61086940F0010008610869C2078D
:100F100001D0C003FAD5086920F0010008618B6197
:100F2000704700002800002094B018A003C8CDE945
:100F3000120118A0D0E900128068CDE90F121190BB
:100F400017A0D0E900128068CDE90C120E90302273
:100F500016A16846FFF740FAFFF7AEFF4FF4A06016
:100F6000FFF7AAFB4FF4E130FFF762FE4FF4165093
:100F7000FFF7B4FEFFF7C8FB0120FFF7BBFFFFF749
:100F8000A5FB0FA912A800F029F8FEE748656C6CD4
:100F90006F21210031383036383931303130360068
:100FA00034463630353937440000000030303331B4
:100FB000303033383030333730303336303033310F
:100FC0003030333030303337303033363030333305
:100FD00030303330303033320000000070B5064618
:100FE0000D46214C1DA12046FFF7F1FEC820FFF75A
:100FF00081FF1EA12046FFF7EAFEC820FFF77AFF17
:101000001CA12046FFF7E3FEC820FFF773FF1BA1DA
:101010002046FFF7DCFEC820FFF76CFF1BA120462F
:10102000FFF7D5FEC820FFF765FF2A461AA11E4824
:10103000FFF7CEF81C492046FFF7C9FEC820FFF78E
:1010400059FF31462046FFF7C2FEC820FFF752FF86
:101050002046BDE870401A21FFF7A0BE41542B4343
:1010600053510D0A000000000048004041540D0A91
:1010700000000000415426460D0A000041542B4355
:101080005343533D2247534D220D0A0041542B43F5
:101090004D47463D310D0A0041542B434D47533DCA
:1010A000222573220D0A0000B00000200400000871
:1010B000000000000000000200010000100000001D
:1010C000E0100008000000203000000028010008A7
:1010D0001011000830000020200700004401000823
:1010E00000A24A0400000000000000000102030406
:1010F00006070809020406080000000001020304B4
:1011000001020304060708090000000000000000B7
:04000005080000ED02
:00000001FF
